:020000040800F2
:1000000000000220612D0008B12D00083112000807
:10001000B12D0008B12D0008B12D0008000000002E
:10002000000000000000000000000000E1280008BF
:10003000B12D00080000000041290008A529000892
:10004000B12D0008B12D0008B12D0008B12D000818
:10005000B12D0008B12D0008B12D0008B12D000808
:10006000B12D0008B12D0008B12D0008B12D0008F8
:10007000B12D0008B12D0008B12D0008B12D0008E8
:10008000B12D0008B12D0008B12D000800000000BE
:10009000000000000000000000000000B12D00087A
:1000A000B12D0008B12D0008B12D0008B12D0008B8
:1000B000B12D0008B12D0008B12D0008B12D0008A8
:1000C000B12D0008B12D0008B12D0008B12D000898
:1000D000B12D0008B12D0008B12D0008000000006E
:1000E000B12D0008B12D0008B12D0008000000005E
:1000F000000000000000000000000000B12D00081A
:1001000000000000B12D0008B12D0008B12D00083D
:1001100000000000000000000000000000000000DF
:1001200011120008B12D0008B12D0008B12D0008F2
:10013000B12D0008000000000000000000000000D9
:10014000000000000000000000000000B12D0008C9
:10015000B12D0008B12D0008B12D0008B12D000807
:10016000B12D0008B12D00080000000000000000C3
:10017000000000000000000000000000000000007F
:1001800000000000B12D0008000000000000000089
:08019000B12D0008B12D00089B
:1001A00081F0004102E000BF83F0004330B54FEA28
:1001B00041044FEA430594EA050F08BF90EA020F95
:1001C0001FBF54EA000C55EA020C7FEA645C7FEA28
:1001D000655C00F0E2804FEA5454D4EB5555B8BF4B
:1001E0006D420CDD2C4480EA020281EA030382EABC
:1001F000000083EA010180EA020281EA0303362D4E
:1002000088BF30BD11F0004F4FEA01314FF4801C20
:100210004CEA113102D0404261EB410113F0004F32
:100220004FEA03334CEA133302D0524263EB4303E9
:1002300094EA050F00F0A780A4F10104D5F1200E87
:100240000DDB02FA0EFC22FA05F2801841F10001E2
:1002500003FA0EF2801843FA05F359410EE0A5F1B6
:1002600020050EF1200E012A03FA0EFC28BF4CF0E7
:10027000020C43FA05F3C01851EBE37101F000459D
:1002800007D54FF0000EDCF1000C7EEB00006EEBAA
:100290000101B1F5801F1BD3B1F5001F0CD3490834
:1002A0005FEA30004FEA3C0C04F101044FEA44528B
:1002B00012F5800F80F09A80BCF1004F08BF5FEA12
:1002C000500C50F1000041EB045141EA050130BDF2
:1002D0005FEA4C0C404141EB0101013C28BFB1F504
:1002E000801FE9D291F0000F04BF01460020B1FA4F
:1002F00081F308BF2033A3F10B03B3F120020CDA22
:100300000C3208DD02F1140CC2F10C0201FA0CF0FF
:1003100021FA02F10CE002F11402D8BFC2F1200C64
:1003200001FA02F120FA0CFCDCBF41EA0C0190401A
:10033000E41AA2BF01EB0451294330BD6FEA040463
:100340001F3C1CDA0C340EDC04F11404C4F120024E
:1003500020FA04F001FA02F340EA030021FA04F360
:1003600045EA030130BDC4F10C04C4F1200220FAB7
:1003700002F001FA04F340EA0300294630BD21FAF5
:1003800004F0294630BD94F0000F83F4801306BFBB
:1003900081F480110134013D4EE77FEA645C18BFAF
:1003A0007FEA655C29D094EA050F08BF90EA020F46
:1003B00005D054EA000C04BF1946104630BD91EA3E
:1003C000030F1EBF0021002030BD5FEA545C05D141
:1003D0004000494128BF41F0004130BD14F5800480
:1003E0003CBF01F5801130BD01F0004545F0FE41F4
:1003F00041F470014FF0000030BD7FEA645C1ABF29
:10040000194610467FEA655C1CBF0B46024650EA5F
:10041000013406BF52EA033591EA030F41F400218B
:1004200030BD00BF90F0000F04BF0021704730B511
:100430004FF4806404F132044FF000054FF00001E6
:1004400050E700BF90F0000F04BF0021704730B5A7
:100450004FF4806404F1320410F0004548BF40427C
:100460004FF000013EE700BF42004FEAE2014FEAD1
:1004700031014FEA02701FBF12F07F4393F07F4FAC
:1004800081F06051704732F07F4208BF704793F0AF
:100490007F4F04BF41F40021704730B54FF46074C2
:1004A00001F0004521F000411CE700BF50EA0102C5
:1004B00008BF704730B54FF000050AE050EA01026E
:1004C00008BF704730B511F0004502D5404261EBDE
:1004D00041014FF4806404F132045FEA915C3FF41F
:1004E000D8AE4FF003025FEADC0C18BF03325FEABC
:1004F000DC0C18BF033202EBDC02C2F1200300FA6D
:1005000003FC20FA02F001FA03FE40EA0E0021FA91
:1005100002F11444BDE600BF70B54FF0FF0C4CF47F
:10052000E06C1CEA11541DBF1CEA135594EA0C0F31
:1005300095EA0C0F00F0DEF82C4481EA030621EA6C
:100540004C5123EA4C5350EA013518BF52EA0335A7
:1005500041F4801143F4801338D0A0FB02CE4FF059
:100560000005E1FB02E506F00042E0FB03E54FF089
:100570000006E1FB03569CF0000F18BF4EF0010E81
:10058000A4F1FF04B6F5007F64F5407404D25FEA7D
:100590004E0E6D4146EB060642EAC62141EA555130
:1005A0004FEAC52040EA5E504FEACE2EB4F1FD0C72
:1005B00088BFBCF5E06F1ED8BEF1004F08BF5FEAF0
:1005C000500E50F1000041EB045170BD06F00046A2
:1005D00046EA010140EA020081EA0301B4EB5C044F
:1005E000C2BFD4EB0C0541EA045170BD41F4801147
:1005F0004FF0000E013C00F3AB8014F1360FDEBF6C
:10060000002001F0004170BDC4F10004203C35DA47
:100610000C341BDC04F11404C4F1200500FA05F3CA
:1006200020FA04F001FA05F240EA020001F000426B
:1006300021F0004110EBD37021FA04F642EB0601E1
:100640005EEA430E08BF20EAD37070BDC4F10C040B
:10065000C4F1200500FA04F320FA05F001FA04F2CF
:1006600040EA020001F0004110EBD37041F10001BB
:100670005EEA430E08BF20EAD37070BDC4F12005C6
:1006800000FA05F24EEA020E20FA04F301FA05F22E
:1006900043EA020321FA04F001F0004121FA04F2D6
:1006A00020EA020000EBD3705EEA430E08BF20EAA6
:1006B000D37070BD94F0000F0FD101F000464000E0
:1006C00041EB010111F4801F08BF013CF7D041EA62
:1006D000060195F0000F18BF704703F00046520066
:1006E00043EB030313F4801F08BF013DF7D043EA37
:1006F0000603704794EA0C0F0CEA135518BF95EAED
:100700000C0F0CD050EA410618BF52EA4306D1D173
:1007100081EA030101F000414FF0000070BD50EA92
:10072000410606BF1046194652EA430619D094EA1C
:100730000C0F02D150EA013613D195EA0C0F05D106
:1007400052EA03361CBF104619460AD181EA03015A
:1007500001F0004141F0FE4141F470014FF0000012
:1007600070BD41F0FE4141F4780170BD70B54FF0AD
:10077000FF0C4CF4E06C1CEA11541DBF1CEA13552D
:1007800094EA0C0F95EA0C0F00F0A7F8A4EB05040F
:1007900081EA030E52EA03354FEA013100F0888006
:1007A0004FEA03334FF0805545EA131343EA1263CF
:1007B0004FEA022245EA111545EA10654FEA002684
:1007C0000EF000419D4208BF964244F1FD0404F53D
:1007D000407402D25B084FEA3202B61A65EB030599
:1007E0005B084FEA32024FF480104FF4002CB6EB56
:1007F000020E75EB030E22BFB61A754640EA0C00D6
:100800005B084FEA3202B6EB020E75EB030E22BF15
:10081000B61A754640EA5C005B084FEA3202B6EB56
:10082000020E75EB030E22BFB61A754640EA9C0015
:100830005B084FEA3202B6EB020E75EB030E22BFE5
:10084000B61A754640EADC0055EA060E18D04FEAA3
:10085000051545EA16754FEA06164FEAC30343EA43
:1008600052734FEAC2025FEA1C1CC0D111F4801F10
:100870000BD141EA00014FF000004FF0004CB6E709
:1008800011F4801F04BF01430020B4F1FD0C88BFA8
:10089000BCF5E06F3FF6AFAEB5EB030C04BFB6EBB3
:1008A000020C5FEA500C50F1000041EB045170BDA6
:1008B0000EF0004E4EEA113114EB5C04C2BFD4EBD3
:1008C0000C0541EA045170BD41F480114FF0000E57
:1008D000013C90E645EA060E8DE60CEA135594EAD3
:1008E0000C0F08BF95EA0C0F3FF43BAF94EA0C0FD6
:1008F0000AD150EA01347FF434AF95EA0C0F7FF44B
:1009000025AF104619462CE795EA0C0F06D152EA9E
:1009100003353FF4FDAE1046194622E750EA410682
:1009200018BF52EA43067FF4C5AE50EA41047FF493
:100930000DAF52EA43057FF4EBAE12E74FEA4102F6
:1009400012F5001215D211D56FF47873B3EB625221
:1009500012D94FEAC12343F0004343EA505311F048
:10096000004F23FA02F018BF404270474FF00000DA
:10097000704750EA013005D111F0004008BF6FF018
:10098000004070474FF00000704700BF00000000BB
:1009900001F0FF01102A2BDB10F0070F08D010F830
:1009A000013B013A8B422DD010F0070F42B3F6D134
:1009B000F0B441EA012141EA014122F007047FF04D
:1009C00000070023F0E80256083C85EA010586EAA4
:1009D000010685FA47F5A3FA87F586FA47F6A5FAE0
:1009E00087F68EB9EED1F0BC01F0FF0102F00702EC
:1009F00032B110F8013B013A83EA010313B1F8D197
:100A00000020704701387047002D06BF3546033877
:100A1000073815F0010F07D1013015F4807F02BFB0
:100A2000013015F4C03F0130F0BC0138704700BF01
:100A300010B5054C237833B9044B13B10448AFF318
:100A400000800123237010BD700000200000000012
:100A5000D03E000808B5034B1BB103490348AFF370
:100A6000008008BD0000000074000020D03E000897
:100A700038B5584802F0D2FA574802F05FFA00F051
:100A800047F900F08DFB00F077F9544C4FF48023C8
:100A9000A361FF2000F00EF901460423A361FF28A3
:100AA00013D04F4B01221A704E4802F047FA4E48BD
:100AB00002F044FA0A20002101F058FA00F0D6F9B9
:100AC00038B94A4802F0AAFAFEE7494802F036FA75
:100AD000FEE70125474B1D70474802F09FFA474843
:100AE00002F02CFA00F0CCF9454802F097FA45489C
:100AF00002F094FA002000F053F90146424802F057
:100B00001DFA052000F04CF90446052000F048F9D4
:100B1000024621463D4802F011FA062000F040F955
:100B200001463B4802F00AFA284600F039F901462E
:100B3000384802F003FA1D2000F032F90146364829
:100B400002F0FCF9072000F02BF90146334802F0CF
:100B5000F5F900F065F9324802F060FA314802F028
:100B60005DFA01F05FF8044616E001F0CBFE2E4876
:100B700002F0E4F92D4B00221A7001F0D3FE2C4B49
:100B800001221A7001F04EF804460EE0294B5B6812
:100B90000520002101F0EAF9264B5A685B6800F055
:100BA000B9F9224B1B78002BDFD1214B1B78002B8E
:100BB000ECD001F037F8001B61F1000141F28933FC
:100BC000984271F10001E1D3232002F0C9F900F04D
:100BD0004DF9DBE7E83E0008203F00080004024032
:100BE0008E000020403F00085C3F000804410008E0
:100BF000803F00088D0000209C3F0008B43F0008A3
:100C0000D83F0008E03F0008144000082C400008CE
:100C100050400008684000088040000898400008E4
:100C2000B0400008E44000081C4100088F0000208C
:100C30008C000020001000E000B583B000F05AFAEC
:100C4000154A136B43F004031363144C236823F019
:100C500040632360236843F080632360636943F447
:100C6000005363610E4A4FF4E1310E4800F094F9ED
:100C7000636923F4005363610B4802F05FF90023BA
:100C80000193032200924FF400720849084800F0D3
:100C9000AFFF01F097FBFEE700380240000802407A
:100CA00000E1F50500100140B43F00082C410008A8
:100CB000710A0008124B5968124B1A68124BA3FBB9
:100CC0000232920C114B9B6813F0020F04D10C4BB3
:100CD0005B685B1A9342F5D30C4BD860084B58689D
:100CE0000A4B9B6813F0010F06D1054B5B681B1A7A
:100CF00002EB42018B42F3D3044BD868C0B2704779
:100D0000001000E00800002083DE1B43003001409B
:100D1000184B5A6C42F480525A641A6B42F0030228
:100D20001A63A3F560531A6822F47C421A601A68A9
:100D300042F428421A601A6A42F0AA4242F4A0021F
:100D40001A629A6842F47C429A6003F580631A68DA
:100D500042F014021A605A6822F006025A609A6839
:100D600042F03C029A60A3F554434FF457721A6064
:100D7000704700BF00380240074AD2F8FC3043F009
:100D80008073C2F8FC30054B00225A601A6842F0AA
:100D900001021A60704700BF00ED00E0001000E0A3
:100DA00010B5074C4FF48023A36100F01F00FFF73C
:100DB00081FFFF20FFF77EFF0423A36110BD00BF6A
:100DC0000004024038B50C46074D4FF48023AB6158
:100DD00000F01F0040F02000FFF76CFF2046FFF7F7
:100DE00069FF0423AB6138BD0004024038B50D46ED
:100DF0000A4B4FF480229A6100F01F0040F020005F
:100E0000FFF758FF002403E0285DFFF753FF01348C
:100E1000042CF9DD014B04229A6138BD0004024024
:100E200030B58BB06C460F4D0FCD0FC40FCD0FC436
:100E300095E8030044F8040B21800B4B4FF480220B
:100E40009A61A820FFF736FF002404E01DF8040093
:100E5000FFF730FF0134252CF8D9034B04229A61A7
:100E60000BB030BD384100080004024008B5032033
:100E7000FFF796FF032814BF0020012008BD0000E3
:100E800038B5FFF779FF214C4FF40033A3610425F7
:100E9000A5610F210020FFF795FF01210846FFF70C
:100EA00091FF5F212846FFF78DFF06211D20FFF7E8
:100EB00089FF01211C20FFF785FF01210220FFF798
:100EC00081FF64210520FFF77DFF26210620FFF723
:100ED00079FF03210846FFF775FF70210720FFF710
:100EE00071FF0B490A20FFF781FF10211120FFF746
:100EF00069FF4FF48023A361E220FFF7DBFEE120CE
:100F0000FFF7D8FEA5610223A36138BD00040240AB
:100F10000000002038B51C4B5D680720FFF740FF3C
:100F2000044610F0400F06D0184AD2F8883043F03B
:100F30000103C2F88830144B5B685B1B144A1360D2
:100F400014F0200F0DD1104B5B685B1B104A5360EF
:100F500014F0100F0AD10C4B5B685B1B0C4A9360BA
:100F600038BD20210720FFF72DFFECE7094C4FF497
:100F70008023A361E120FFF79DFE0423A3611021DC
:100F80000720FFF71FFFE6E7001000E000600240C7
:100F9000A000002000040240F8B504460D461046AB
:100FA000434B9C4245D0434B9C4257D0424B9C42C2
:100FB00069D0FFF747FA06460F462846FFF742FA80
:100FC00000223E4BFFF7A8FA02460B463046394650
:100FD000FFF7CCFB06460F46FFF7B0FC0546FFF7D0
:100FE00031FA02460B4630463946FFF7DDF800225B
:100FF000324BFFF791FA0022314BFFF7D7F8FFF79A
:101000009DFC0F2801DD0135002000F00F0343EAAD
:101010000513A360E36843F4005343F00C03E3605B
:10102000284B1868002302221946806801F0FEFF51
:10103000F8BD03F5FA331A6C42F400321A641A6BE5
:1010400042F001021A63A3F560531A6842F0A0024D
:101050001A601A6A42F4EE421A62AAE703F5943360
:101060005A6C42F010025A641A6B42F001021A6381
:10107000A3F560531A6842F420121A605A6A42F4C7
:10108000EE625A6295E703F592335A6C42F0200201
:101090005A641A6B42F001021A63A3F560531A688E
:1010A00042F020721A605A6A42F408225A6280E7BB
:1010B0000044004000100140001401400000304096
:1010C0000000E03F1C000020036813F0800FFBD0FD
:1010D0004160704770B50E461546002404E0315D4E
:1010E0000348FFF7F1FF0134AC42F8DB284670BD3E
:1010F00000100140274B1A6C42F080521A641A68A3
:1011000042F480321A60234B1B6813F4003FFAD07C
:10111000214A136843F440431360204B1A6842F499
:10112000E0621A601A6842F003021A60A3F5806355
:1011300000225A605A6842F019025A605A6842F412
:1011400048525A605A685A605A6842F480025A609B
:101150009A689A609A6842F480529A609A689A6093
:101160001A6842F080721A600A4B1B6813F0007F05
:10117000FAD0084B9A6822F003029A609A6842F00B
:1011800002029A60034B9B6803F00C03082BF9D111
:10119000704700BF0038024000700040003C024031
:1011A000164A136B43F48003136302F5305213693C
:1011B00023F001031361124B1B6913F0010FFAD1E5
:1011C0000F4B3F229A601A6922F060621A611A6915
:1011D00042F0C0621A611A6942F480621A611A69A7
:1011E00042F010021A61074A9A61074ADA61102236
:1011F0005A61064B4FF080725A60704700380240C7
:10120000006402400C3001409000002000E100E04A
:10121000054B1B6813F0200F05D0034B20229A606A
:10122000024B01221A707047006402408F000020B8
:101230001EF0040F0CBFEFF30880EFF3098000F0FD
:1012400000B84FF0E023D3F82C3D002B00DBFEE785
:101250004FF0E022D2F82C3D43F00043C2F82C3D81
:10126000836902338361704770B50C4616460025CA
:1012700006E0AFF30080214601F8010B01350C4672
:10128000B542F6DB304670BD4FF0FF3070474FF48B
:1012900000534B60002070470120704700207047CA
:1012A00010B503460C4A0D490D48006840B10C4882
:1012B00000680344521A934206D8094A136010BDCD
:1012C0000748084C0460F2E702F088F80C2303603A
:1012D0004FF0FF30F3E700BF0000022000040000E1
:1012E000AC000020201A0020054BD3F8882042F4DF
:1012F0007002C3F888204FF000629A60704700BF08
:1013000000ED00E00000000000F1080343609FEDE5
:10131000067B80ED027B0361436100238361C3612F
:1013200003607047AFF30080FFFFFFFFFFFFFFFF89
:10133000002343617047F0B40D684E68B6F1FF3F7B
:1013400008BFB5F1FF3F14D000F108031C469B68AD
:101350005A681F68BD4276EB0202F7D2A3688B6021
:10136000D960CC60A1604861036801330360F0BCC0
:1013700070474469F2E743698168C268CA6081685E
:1013800091605A68824205D0002242611868013893
:1013900018607047C2685A60F6E710B5044601F05D
:1013A000B1FA236D23B9012401F0BCFA204610BD27
:1013B0000024F9E770B504461546066D826D5AB9EA
:1013C00003681BB100200136266570BD806800F0FF
:1013D0007BFF0023A360F6E76DB9406802F02BF8AD
:1013E0006368A26D13446360A268934219D32368B3
:1013F00063602846E7E7C06802F01DF8E368A26D65
:1014000051429B1AE3602268934202D2A3680B44C4
:10141000E360022D01D00020D5E726B1013E002077
:10142000D1E72846CFE70020CDE70346826D6AB1B9
:1014300010B50846D9681144D9609C68A14201D30F
:101440001968D960D96801F0F6FF10BD704770B512
:1014500082B00190046E226D636D9A4203D3002521
:10146000284602B070BD94F85D6076B2002201A9F2
:101470002046FFF79FFF0546B6F1FF3F0AD1236BD9
:10148000002BEDD004F1300000F020FE0028E7D062
:101490000125E5E700F0D4FB8642E1D2013676B2C1
:1014A00084F85D60DCE738B5054601F02BFA95F865
:1014B0005D4064B208E02B6BB3B105F1300000F081
:1014C00005FE70B9013C64B2002C0DDD2B6E002BC3
:1014D000F1D02846FFF7BBFF0028F3D000F0C8FE8C
:1014E000F0E700F0C5FEEDE7FF2385F85D3001F081
:1014F00019FA01F007FA95F85C4064B201E0013C8A
:1015000064B2002C0ADD2B6943B105F1100000F034
:10151000DDFD0028F3D000F0ABFEF0E7FF2385F8F7
:101520005C3001F0FFF938BD002844D038B50D46D5
:101530000446436D002B40D0826D0021A2FB0323A3
:1015400013B919B1002039E00121FAE701F0DAF905
:101550002368626DA16D01FB0230A0600020206550
:101560006360013A02FB0133E360FF2384F85C30DF
:1015700084F85D30B5B923691BB901F0D3F90120B6
:101580001CE004F1100000F0A1FD0028F5D04FF0A0
:10159000E0234FF08052C3F8042DBFF34F8FBFF309
:1015A0006F8FEAE704F11000FFF7AEFE04F13000A0
:1015B000FFF7AAFEE1E700207047002038BD10B514
:1015C000029C0B4649B924606065A3650121204651
:1015D000FFF7AAFF0023236610BD2260F4E7C0B125
:1015E00010B582B01C468446ABB172B159B101232B
:1015F00084F85E3000949DF810306046FFF7DFFFFE
:10160000204602B010BD0020FBE70029EFD01046B5
:10161000F7E7002070471846F3E7F0B587B00446B7
:101620000E46CDE9002300253EE031462046FFF777
:10163000FCFE013F2765236923B901F073F90120FE
:1016400007B0F0BD04F1100000F040FD0028F4D018
:101650004FF0E0234FF08052C3F8042DBFF34F8FBB
:10166000BFF36F8FE9E701F05DF90020E8E702A81A
:1016700000F098FD012522E0002384F85C302AE088
:10168000002384F85D302CE02046FFF70CFF00F0CB
:10169000C7FB09E02046FFF706FF00F0C1FB20462C
:1016A000FFF77BFE002841D101F02CF9276D002FB8
:1016B000BBD1009B019A1343D5D0002DD7D001F0A8
:1016C00031F900F0A7FA01F01DF994F85C305BB233
:1016D000B3F1FF3FD0D094F85D305BB2B3F1FF3F80
:1016E000CED001F01FF9694602A800F069FD00287C
:1016F000D0D12046FFF751FE0028C5D0DDE90023F8
:1017000004F1300000F0B2FC2046FFF7CCFE00F000
:1017100087FB0028C8D14FF0E0234FF08052C3F878
:10172000042DBFF34F8FBFF36F8FBDE7002087E716
:1017300070B582B0044615461E4601F0E3F894F8F1
:101740005C1049B2B1F1FF3F0ED094F85D1049B280
:10175000B1F1FF3F0CD001F0E5F8216D61B12046F9
:10176000FFF7A1FE02B070BD002384F85C30ECE707
:10177000002384F85D30EEE7069B00932A4633464B
:1017800004F1300000F082FCE9E70000124B1B6816
:1017900003B10123114A1268926B9AB9104A126878
:1017A000012A03D94FF0000C61460EE07BB90D4BC6
:1017B000D3E900010C4BD3E90023B0EB020C61EB41
:1017C000030102E04FF0000C6146604670474FF0A5
:1017D000000C6146F9E700BF8C050020F0060020F0
:1017E0005006002068050020900500200A4B1B6869
:1017F0001B683BB9094B4FF0FF304FF0FF31C3E995
:1018000000017047044B1B681B69D3E90001034BBF
:10181000C3E90001704700BF0C06002068050020E6
:101820002DE9F84F07468A46934698460A9DDDF80B
:101830002C900C9C9200A521E06B01F081FDE66BE1
:101840000BF18042013A06EB820626F00706BAF158
:10185000000F11D04FF0000CBCF1030F09D81AF89B
:101860000C3004EB0C0282F8403013B10CF1010C87
:10187000F2E7002384F84330042D00D90425A56342
:10188000656404F10800FFF753FD04F12000FFF741
:101890004FFDA461D5F1050563EB03032562636287
:1018A000246342463946304600F0FEFF2060B9F11D
:1018B000000F01D0C9F80040BDE8F88F2DE9F043D2
:1018C00085B00D9E0E9CF4B10546894690461F4694
:1018D000DEB158220021204601F032FDE6630223EA
:1018E00084F855300023039302940F9B01930C9BC3
:1018F00000933B46424649462846FFF791FF204663
:1019000005B0BDE8F0832046FAE73046F8E700006E
:1019100038B5002405E00F4800EB4410FFF7F4FC55
:101920000134042CF7D90C4D2846FFF7EDFC0B4C85
:101930002046FFF7E9FC0A48FFF7E6FC0948FFF7F5
:10194000E3FC0948FFF7E0FC084B1D60084B1C60F6
:1019500038BD00BF500600203006002010060020D1
:10196000E8050020C8050020A00500200C06002086
:101970000806002010B5044600F0C4FF274A13688B
:1019800001331360264B1B685BB1264B1B686BB998
:10199000234B1B689A6BA36B9A4207D8204B1C60A1
:1019A00004E01F4B1C601368012B33D01E4A1368E0
:1019B00001331360A36B1D4A1268934201D91B4A7D
:1019C00013601B4A02EB43135B682361D8686061B4
:1019D00004F108018160D960A36B590102EB431344
:1019E000E36153580133535000F09CFF0D4B1B68CB
:1019F0007BB10B4B1B689A6BA36B9A4209D24FF0D9
:101A0000E0234FF08052C3F8042DBFF34F8FBFF394
:101A10006F8F10BDFFF77CFFC8E700BF980500205F
:101A2000F006002088050020700500208C050020AD
:101A3000500600202DE9F04385B006460F461446B7
:101A40009846900001F0F8F88146F8B1582001F06E
:101A5000F3F80546B0B15822002101F071FCC5F839
:101A60003C900023039302950D9B01930C9B0093E4
:101A70004346224639463046FFF7D2FE284605B097
:101A8000BDE8F083484601F041F9F7E70546F5E780
:101A900010B5044690F8553013B1012B07D010BD96
:101AA000C06B01F033F9204601F030F9F7E701F09F
:101AB0002DF9F4E70F4B1B68DBB110B500F022FFE6
:101AC0000D4B1B691C6904F10800FFF754FC0B4A1D
:101AD0001368013B1360074A1368013B136000F071
:101AE00021FF2046FFF7D4FF024B1B68002BE5D1F6
:101AF00010BD7047C0050020C805002098050020D3
:101B00002DE9F84F804689461446294BD3E90067F2
:101B1000284BD3F800A0284BD3F800B0274B1A6805
:101B2000002182F8561018680830FFF724FCB9F13C
:101B3000FF3F08BFB8F1FF3F13D016EB080449EB95
:101B400007051E4B1B68C3E90245B44275EB07034A
:101B50001DD21A4B196808315846FFF7ECFBBDE857
:101B6000F88F002CE9D0164A5168144B18680161AF
:101B70001868CC68446118680830A060186808309C
:101B8000C8601B68DA61136801331360E7E70B4B29
:101B9000196808315046FFF7CEFB0A4BD3E9002302
:101BA000944275EB0303DAD2064BC3E90045D6E74E
:101BB000900500200C06002008060020F0060020FA
:101BC000A00500206805002010B586B0002405940B
:101BD00005AC03940A9C0294099C0194089C00940F
:101BE000FFF76CFE08B1FFF7C5FE059806B010BD03
:101BF00010B582B0059C0194049C0094FFF71AFF75
:101C000020B1FFF7B7FE012002B010BD4FF0FF304A
:101C1000FAE70000024A136801331360704700BFFF
:101C20006005002038B500F06DFE044BD3E9004597
:101C300000F078FE2046294638BD00BF9005002000
:101C4000014B1868704700BF9805002070B5044626
:101C50000D46134BD3E90023101841EB0301114B40
:101C6000D3E900238B4208BF824208D00C4ED6E94C
:101C70000023101945EB0301C6E9000170BD00F017
:101C800041FE094ED6E90023501C43F10001C6E98C
:101C9000000100F047FE013C45F1FF35E6E700BFDB
:101CA000900500206805002080050020F8B5514B04
:101CB0001B68002B40F093804F49D1E90023541C4E
:101CC00043F10005C1E9004554EA050316D04B4B2A
:101CD000D3E90023944275EB03031CD20020484B48
:101CE0001B689B6B5B01474AD358012B00D901202D
:101CF000454B1B68002B7BD0012079E0434A1168DB
:101D0000434B186810601960424A1368013313602E
:101D1000FFF76CFDDBE7002032E0384B4FF0FF347B
:101D20004FF0FF35C3E90045D9E7344BC3E90067FD
:101D3000D5E7596951603DE00021596311680139C7
:101D400011609A6B344909688A4201D932490A60A4
:101D50002C4901EB421252681A61D7685F61BE607C
:101D6000D6609A6B560101EB4212DA618A59013250
:101D70008A519A6B224B1B689B6B9A4200D90120B7
:101D8000224B1B681B68002BC7D0204B1B681B69AC
:101D90001B69D3E90267B44275EB0702C5D3DA6960
:101DA0001E695969F1601E698E60516803F1080669
:101DB000B142BED00021D9611168013911605A6B5E
:101DC000002ABED09F6AD96AF9609F6A8F605768FF
:101DD00003F120018F42AFD1D96A5160ACE70F4CBB
:101DE000D4E90023501C43F10001C4E900010020A4
:101DF000F8BD00BF600500209005002068050020A8
:101E0000F006002050060020780500200C06002077
:101E100008060020740500208C05002080050020A5
:101E200038B500F06FFD494B1A68013A1A601B681B
:101E3000002B40F08580464B1B683BB9002480E0B6
:101E4000D96A516015E05969516022E00023414A86
:101E50001268002A44D03F4B1B691B695A6B986A71
:101E6000D96AC160986A8860506803F1200188428D
:101E7000E6D000215963116801391160DA691869E7
:101E80005969C16018698860516803F1080081428E
:101E9000D9D00021D9611168013911609A6B2E499E
:101EA00009688A4201D92C490A602C4901EB421287
:101EB00052681A61D4685C61A060D0609A6B50016E
:101EC00001EB4212DA610A5801320A50996B244A36
:101ED0001268926B9142BAD9224A01211160B6E789
:101EE0000BB1FFF783FC204BD3E9004554EA05030F
:101EF00018D11C4B1C6824B3194B1B684FF0E0230E
:101F00004FF08052C3F8042DBFF34F8FBFF36F8F94
:101F1000012416E0621E45F1FF3314461D4652EAC5
:101F2000050307D0FFF7C2FE0028F3D00D4B0122B6
:101F30001A60EFE70C4B00200021C3E90001D8E74D
:101F4000002400F0EFFC204638BD00BF60050020F3
:101F500098050020E80500208C0500205006002090
:101F6000F0060020780500208005002038B550EAF2
:101F700001030AD14FF0E0234FF08052C3F8042D43
:101F8000BFF34F8FBFF36F8F38BD05460C46FFF789
:101F900041FE002228462146FFF7B2FDFFF740FF31
:101FA0000028F1D1E6E7000008B50FE04FF0E0238C
:101FB0004FF08052C3F8042DBFF34F8FBFF36F8FE4
:101FC000FFF7E4FB022871F1000106D2FFF772FD72
:101FD000084B1B68012BE9D8F2E7FFF71BFEFFF760
:101FE000D5FB022871F1000301D300F0F1FCFFF7EB
:101FF00017FFEBE750060020174B1B681BB1174B70
:1020000001221A607047154B00221A60144B1A689F
:1020100000E0013A53011349CB58002BF9D0084690
:10202000530101EB421CDCF804108968CCF8041061
:102030000833034499420AD00A4B03EB42135B680E
:102040001969094B196006490A601B687047DCF87A
:102050001010CCF80410EFE7600500207805002090
:102060008C05002050060020F006002038B51546EB
:102070001C46054B19682031FFF75DF901222846FF
:102080002146FFF73DFD38BDF0060020F8B50446B7
:1020900010461946069A63680B4D2E68B3622E6887
:1020A000DF68F7622E682036BE602E682036DE605C
:1020B0002B685C6323680133236012B14FF0FF305B
:1020C0000146FFF71DFDF8BDF006002010B50369BD
:1020D0001C69636BA16AE26ACA60A16A91605A686E
:1020E00004F120018A423CD0002262631A68013A5E
:1020F0001A60264B1B68002B39D1E369216962699C
:10210000CA60216991605A6804F108018A422BD0A3
:102110000022E2611A68013A1A60A36B1C4A126835
:10212000934201D91A4A13601A4A02EB43135B68BF
:102130002361D86860618160D960A36B590102EBAB
:102140004313E361535801335350FFF74FFBA26B26
:10215000114B1B689B6B9A4215D901200F4B1860DD
:1021600010BDE26A5A60BFE762695A60D0E70C4B63
:102170005A68A262D068E0628160D16063631A68C5
:1021800001321A60E3E70020EAE700BF60050020A3
:102190008C05002050060020F00600207805002065
:1021A000E8050020044B1B680360044BD3E90023BF
:1021B000C0E90223704700BF74050020900500208D
:1021C0002DE9F84304460D4600F09CFB254BD3E96E
:1021D0000023A168E068B2EB010863EB000C224E1B
:1021E000366896F8566056B11F4B1B68002283F87C
:1021F0005620012400F096FB2046BDE8F883D5F870
:1022000000E0D5F80490B9F1FF3F08BFBEF1FF3FF1
:1022100026D0164E36682768B74209D08A4273EB3B
:10222000000605D300220023C5E900230124E1E7CD
:10223000F0457CEB090C05D300220023C5E90023FF
:102240000124D7E7891A60EB030011EB0E0149EB7B
:10225000000729606F602046FFF7A4FF0024C9E74C
:102260000024C7E790050020F00600207405002038
:10227000014B01221A607047780500200D4B1B6846
:1022800083B90D4B1B687BB90C4BD3E900231A4370
:102290000CD10B4B1A680B4B1B68013B9A4207D0C1
:1022A00001207047002070470020704700207047D1
:1022B00002207047E80500207805002080050020F6
:1022C000A005002098050020002831D038B504462C
:1022D000836C013B8364816B426C91422AD00BB1C9
:1022E000002038BD00F108052846FFF744F8636C6C
:1022F000A363D3F1050162EB0202216262620E4A1E
:102300001268934201D90C4A13600C4A02EB431342
:102310005B682361D96861618D60DD60A36B5901E1
:1023200002EB4313E3615358013353500120D8E7C4
:10233000002070470020D4E78C05002050060020C4
:10234000034B0360034B0B6080231360704700BF97
:10235000080500200803002030B589B00023032BB6
:1023600024DC154AD25C03F12001694401F8042CF5
:10237000E2B10133F3E700250495059506AA05A906
:1023800004A8FFF7DDFF049B0293059B01930095D2
:102390002B46069A07A90948FFF716FC084B43F895
:1023A000240008B1013402E0002003E00024002CE6
:1023B000E1DD012009B030BD60410008A91F00081F
:1023C0006405002008B5FFF7C7FF012802D0104BB5
:1023D0001B6808BD00F00CFA0128F8D14FF000038B
:1023E00083F31188BFF36F8FBFF34F8F094B4FF00B
:1023F000FF304FF0FF31C3E90001074B01221A60A3
:10240000064B00200021C3E9000100F08FFBDEE74E
:102410007041000868050020880500209005002014
:10242000034B0360034B0B6080231360704700BFB6
:10243000B0020020B0000020074B1A68136833B9BF
:10244000012303602BB91369D3E90001704700230E
:10245000F7E70020002170476408002070B5049C55
:102460000599069D079E8260C3608061944271EB6E
:10247000030C11D3641B61EB0601026A436A9442A8
:10248000994101D3012070BD00F108010A4B186881
:10249000FEF751FF0020F6E7AC42B14102D2AA425A
:1024A000B34107D200F10801044B1868FEF743FF5F
:1024B0000020E8E70120E6E760080020640800202B
:1024C0002DE9704384B0044615461E46DDE90A89AD
:1024D00008E0226A636A5219154643EB0606E36A6E
:1024E00020469847226A636A521902950396CDE9FD
:1024F000008943EB06032046FFF7B0FF0028E8D130
:1025000004B0BDE8708300002DE9F04182B00646BA
:102510000D4690461F46104B1B681B691C6904F151
:102520000800FEF728FF94F830C01CF0040F09D112
:102530002CF0010C84F830C0E36A2046984702B0C2
:10254000BDE8F081CDF80080019732462B46204649
:10255000FFF7B6FFF0E700BF6408002008B508E009
:1025600019694FF0FF324FF0FF33D1E90001FFF757
:10257000CBFF054B1B681A68002AF1D1034A10688B
:1025800001490860136008BD64080020600800204D
:1025900070B50646FFF746FB05460C46094B1A6820
:1025A0005B68904271EB030307D300233360054B54
:1025B0001D605C602846214670BDFFF7CFFF0123F8
:1025C0003360F4E7500800202DE9F04184B0044660
:1025D00088461746FFF71EFB03A8FFF7D9FF039AAB
:1025E0006ABB05460E4617BBA04271EB080315D225
:1025F000621B009768EB060313490868FFF798F819
:10260000FFF70EFCE8B94FF0E0234FF08052C3F81B
:10261000042DBFF34F8FBFF36F8F12E0FFF700FC65
:102620002A46334620464146FFF76EFF09E0074B36
:102630001B681B680BB90127DAE71746D8E7FFF7D5
:10264000EFFB04B0BDE8F0815C08002060080020CA
:1026500070B58CB0002306930793089309930A93EF
:102660000B9302E0069B002B10DA0022002306A940
:1026700040480068FEF7D1FF002878D0069B002B69
:10268000F0DA0A990998089B9847EBE70A9CE369F6
:102690001BB104F10800FEF76EFE05A8FFF778FFF6
:1026A00005460E46069B013B082BDED8DFE803F00B
:1026B0000505353C510505353C0094F8303043F0B4
:1026C000010384F830300899099B226A606A8A18ED
:1026D000029103930095019643EB00032046FFF718
:1026E000BDFE0028C1D094F8303013F0040F07D19C
:1026F00023F0010384F83030E36A20469847B4E7BA
:10270000089A216A636A521800950196099941EB6B
:1027100003032046FFF7D4FEEEE794F8303023F0B1
:10272000010384F83030A0E794F8303043F001031F
:1027300084F83030089A099B226263621218029072
:1027400003910090019143EB01032046FFF786FEC1
:102750008BE794F8303013F0020F04D023F001031C
:1027600084F8303081E7204600F0D0FA7DE70CB0E5
:1027700070BD00BF5C08002000B583B001A8FFF762
:102780005BFE019AFFF720FFFFF762FFF6E700000C
:1027900030B583B000F0B6F80E4B1B681BB100F0EB
:1027A000C1F803B030BD0C4D2846FEF7ADFD0B4C13
:1027B0002046FEF7A9FD0A4B1D600A4B1C60002352
:1027C0000093094B094A18210A20FEF708FF014B24
:1027D0001860E4E75C0800208808002068080020F2
:1027E0006408002060080020F80600206007002030
:1027F00010B588B0FFF7CCFF104B1B68D3B1002495
:102800000594069407AA06A905A8FFF709FE059BEB
:102810000293069B0193042300932346079A0849D9
:102820000848FFF7D1F9084B186008B1012002E011
:10283000204600E0002008B010BD00BF5C0800206A
:1028400068410008792700085808002082B000235A
:1028500001934FF0000383F31188BFF36F8FBFF331
:102860004F8F019B002BFCD002B0704708480068D6
:10287000006880F308884FF0000080F3148862B687
:1028800061B6BFF34F8FBFF36F8F00DF00BF000053
:1028900008ED00E0DFF80C00016841F47001016010
:1028A0007047000088ED00E04FF0807340F8043C72
:1028B00021F0010140F8081C054B40F80C3C40F8A1
:1028C000202C6FF0020340F8243C4438704700BFCE
:1028D0004D2800080000000000000000000000007B
:1028E000074B19680868B0E8F04F80F30988BFF318
:1028F0006F8F4FF0000080F311887047AFF30080B6
:10290000F00600204FF0000383F31188BFF36F8FB0
:10291000BFF34F8F024A136801331360704700BF43
:102920000C000020034A1368013B13600BB983F3CA
:10293000118870470C00002000000000000000001B
:10294000EFF30980BFF36F8F154B1A681EF0100F5D
:1029500008BF20ED108A20E9F04F10602DE9090032
:102960004FF0000080F31188BFF34F8FBFF36F8FDC
:10297000FFF742FB4FF0000080F3118809BC196893
:102980000868B0E8F04F1EF0100F08BFB0EC108AD6
:1029900080F30988BFF36F8F704700BFAFF30080EB
:1029A000F006002008B54FF0000383F31188BFF351
:1029B0006F8FBFF34F8FFFF779F928B14FF0E02306
:1029C0004FF08052C3F8042D002383F3118808BD13
:1029D00038B5444B1A68002314461D4682428B4189
:1029E00001D304460D4672B6BFF34F8FBFF36F8F0E
:1029F000FFF744FC08B962B638BD4FF0E023062269
:102A00001A619B690BB9384B1B68611E364A126804
:102A100001FB02334FF0E022D2F8042D12F0806F58
:102A200008D04FF0E0224FF00071C2F8041D2E4A8A
:102A300012689B1A2D4A12689A4200D29B1A4FF0D4
:102A4000E022536100219161116941F0010111619E
:102A5000254304D0BFF34F8F30BFBFF36F8F62B6F3
:102A6000BFF34F8FBFF36F8F72B6BFF34F8FBFF3BC
:102A70006F8F4FF0E02206211161126912F4803F3E
:102A800020D0194A11684FF0E0229269D31A0B4402
:102A9000013B164A12689A4201D2994200D24B1E5B
:102AA0004FF0E0225361601E4FF0E0230021996156
:102AB00007221A610C4A1268013A5A61FFF7C6F8F8
:102AC00062B699E74FF0E0218B69074A126802FB72
:102AD00004F4E01AB0FBF2F000FB02221B1B1344CB
:102AE0004B61E1E7AC080020B0080020A8080020F6
:102AF000094B0A4A1A600A4BA7221A60094B5E2248
:102B00001A604FF0E02300221A619A61064A5A6166
:102B100007221A61704700BFB0080020A08601009C
:102B2000AC080020A80800209F86010038B54FF0AF
:102B3000E024D4F8203D43F47F03C4F8203DD4F8CA
:102B4000203D43F07F43C4F8203D0025C4F81C5DC0
:102B5000FFF7CEFF084B1D60FFF79CFED4F8343F13
:102B600043F04043C4F8343FFFF780FEFFF744FAD8
:102B7000FFF76CFE284638BD0C000020104A12F00A
:102B8000070F1AD0D11D21F00701C1F5805313445E
:102B90000A460C480260002141601344083B23F0C0
:102BA00007030948036059601960991A516013605E
:102BB000064B1960064B196070474FF48053E8E7E5
:102BC000D0080020C8080020C4080020BC0800204D
:102BD000C0080020164B1A461B688342FBD351687D
:102BE00002EB010C844509D0416800EB010C634500
:102BF00009D00360904219D01060704740680144CA
:102C000051601046F0E710B40A4C2468A3420BD080
:102C10005B681944416013681B680360904200D0F0
:102C200010605DF8044B70470460F7E7704700BF21
:102C3000C8080020C408002070B5044670B110F127
:102C4000090F0AD8083414F0070307D0C3F10802AB
:102C5000093BA34212D3144400E00024FEF7DAFF3C
:102C6000254B1B6863B1002C3EDB002C3ED0234B70
:102C70001E68A6423CD322490B6806E00024EDE71B
:102C8000FFF77CFFEFE7194613465A68A24202D2CB
:102C90001A68002AF7D1184A12689A422AD00D6899
:102CA00008351A680A605868001B102805D91A19D7
:102CB00050605C60086818510A605968761A0F48BD
:102CC000066010480068864201D20E48066041F056
:102CD0000041596000221A600B4A136801331360E7
:102CE000FFF79EF8284670BD0025F9E70025F7E7B5
:102CF0000025F5E70025F3E7C4080020C008002000
:102D0000C8080020BC080020B808002010B338B55F
:102D10000446A0F1080550F8043C002B00DB38BD48
:102D200050F8082C002AFAD123F0004340F8043C64
:102D3000FEF770FF54F8041C074A13680B44136035
:102D40002846FFF747FF054A136801331360FFF772
:102D500067F8E4E7704700BFC0080020B40800200F
:102D6000DFF834D00D480E490E4A002302E0D45853
:102D7000C4500433C4188C42F9D30B4A0B4C0023C3
:102D800001E013600432A242FBD3FEF7ADFA00F07B
:102D90002BFBFDF751FF70470000022000000020D0
:102DA0006C000020B8410008700000201C1A0020B0
:102DB000FEE70000002310B50446C0E90033C0E977
:102DC0000433836081814366C2818361194608228E
:102DD0005C3000F0B5FA0D4B63620D4BA3620D4BF6
:102DE000E3620D4B23630D4B24629C4206D003F13A
:102DF0006802944202D0D0339C4205D104F15800BD
:102E0000BDE8104000F014BB10BD00BF95310008B4
:102E1000B7310008EF31000815320008D018002043
:102E2000024A0349034800F06BB800BF10000020BD
:102E3000F93C00082000002041680C4B994210B575
:102E4000044601D000F058FFA168094B994202D016
:102E5000204600F051FFE168064B994204D020461D
:102E6000BDE8104000F048BF10BD00BFD0180020E2
:102E700038190020A01900200C4B0D4A0D4810B540
:102E800004211A600022FFF795FF0A4B01221C461D
:102E9000092103F16800FFF78DFF04F1D000022241
:102EA000BDE810401221FFF785BF00BF081A0020BF
:102EB000212E0008D0180020014800F0BABA00BF47
:102EC000111A0020014800F0B5BA00BF111A002005
:102ED00010B50446FFF7F0FF236A1BB1BDE81040B0
:102EE000FFF7F0BF044B2362044B1B68002BF5D1A6
:102EF000FFF7C2FFF2E700BF392E0008081A0020D2
:102F00002DE9F8430746884614460026D4E9019582
:102F1000B9F1010905D52468002CF7D13046BDE888
:102F2000F883AB89012B07D9B5F90E30013303D0F3
:102F300029463846C04706436835E9E70FB407B568
:102F4000064904AB086853F8042B8168019300F02C
:102F5000ABFB03B05DF804EB04B070471C0000202D
:102F6000024B01461868826800F04BBF1C0000202D
:102F7000036A70B5846805460E460BB9FFF7A8FFD3
:102F8000636EDB0705D4A389980502D4A06D00F019
:102F900050FAA389190702D52369002B35D12146A0
:102FA000284600F079F980B34FF0FF35636EDA07F9
:102FB00005D4A3899B0502D4A06D00F03BFA2846F6
:102FC00070BD002B04DAA269934217DB0A2915D0E1
:102FD00023685A1C22601970A36816F8011F013B70
:102FE000A3600029EDD1002B11DA22460A212846E0
:102FF00000F014F90130D7D00A25D7E72246284639
:1030000000F00CF90130E7D1CEE7013EE4E7236898
:103010005A1C22600A221A70EEE70000024B014699
:103020001868FFF7A5BF00BF1C0000202DE9F7437B
:103030001D46574B1F6804460E46904627B13B6A13
:1030400013B93846FFF744FFB8F1020F06D0B8F1C4
:10305000010F00F29A80002DC0F29780636ED907AD
:1030600005D4A3899A0502D4A06D00F0E2F92146A7
:10307000384600F041FE616B41B104F144039942CE
:1030800002D0384600F0E6F9002363630023A36111
:103090006360A3891B0603D52169384600F0DAF97D
:1030A000A38923F44A6323F00303B8F1020FA38139
:1030B00061D001AB6A462146384600F045FEA3893F
:1030C0001843A0812DBB009D284600F00DFA06464E
:1030D000002852D1DDF80090A94540D14FF0FF35CE
:1030E000B4F90C3043F00202A2810022A26004F184
:1030F00047022260226101226261626ED60704D417
:10310000980502D4A06D00F095F9284603B0BDE8FB
:10311000F083002ED8D03B6A13B93846FFF7D8FEAB
:10312000B8F1010F08BFA389266004BF43F0010373
:10313000A381B4F90C3013F00802C4E904651ED071
:10314000D90741BF00226D42A260A56158BFA560AA
:10315000626ED20701D49B0513D50025D5E74846FA
:1031600000F0C2F906460028B8D0A38943F08003D6
:10317000A3814D46CFE70025B2E7A946F5E7A26057
:10318000E6E7A06D00F056F9E7E74FF0FF35BCE742
:103190001C00002010B50C46B1F90E1000F0FAF832
:1031A0000028ABBF636DA3891B1823F48053ACBF09
:1031B0006365A38110BD2DE9F0411F468B89DB05B6
:1031C00005460C46164605D5B1F90E10022300221D
:1031D00000F0CEF8A389B4F90E1023F48053A38134
:1031E00032463B462846BDE8F04100F0E5B810B550
:1031F0000C46B1F90E1000F0BBF8B4F90C30421CCB
:103200000BBF23F4805343F48053A381A38118BFE1
:10321000606510BDB1F90E1000F09AB8F8B50E4611
:103220001446054618B1036A0BB9FFF751FEA369AE
:10323000A360A3891A0701D5236943B9214628460B
:1032400000F02AF818B14FF0FF373846F8BD236870
:103250002269981A6369F6B28342374605DC214633
:10326000284600F049FD0028EDD1A368013BA3608A
:1032700023685A1C22601E706269431C9A4204D063
:10328000A389DB07E1D50A2EDFD12146284600F0CD
:1032900033FD0028D9D0D6E738B5284B0546186845
:1032A0000C4618B1036A0BB9FFF712FEB4F90C30E3
:1032B000190721D4DA0607D409222A6043F0400313
:1032C000A3814FF0FF3031E0580712D5616B41B157
:1032D00004F14403994202D0284600F0BBF80023D1
:1032E00063630022B4F90C3062602269226023F02B
:1032F000240343F00803A381226942B903F4207335
:10330000B3F5007F03D02146284600F041FDB4F913
:103310000C3013F001020AD00022A260626952420E
:10332000A261226942B913F08000C7D138BD990764
:1033300058BF6269A260F4E70020F7E71C00002094
:1033400002440346934200D1704703F8011BF9E79A
:1033500038B5064D0023044608462B60FDF794FF60
:10336000431C02D12B6803B1236038BD0C1A002026
:1033700038B5074D04460846114600222A601A4611
:10338000FDF78CFF431C02D12B6803B1236038BDCD
:103390000C1A002038B5074D044608461146002295
:1033A0002A601A46FDF760FF431C02D12B6803B167
:1033B000236038BD0C1A002038B5074D0446084676
:1033C000114600222A601A46FDF784FE431C02D1F2
:1033D0002B6803B1236038BD0C1A0020014B18681C
:1033E000704700BF1C00002070B50D4B0D4D5B1BDE
:1033F0009C100026A64209D100F06AFD0A4D0B4B35
:103400005B1B9C100026A64205D170BD55F8043BFD
:1034100098470136EEE755F8043B98470136F2E746
:10342000B0410008B0410008B0410008B4410008B4
:103430007047704770470A44914200F1FF3300D152
:10344000704710B511F8014B03F8014F9142F9D1C3
:1034500010BD000038B50546002941D051F8043CA4
:103460000C1F002BB8BFE41800F0E8F81D4A1368E1
:1034700033B9636014602846BDE8384000F0E4B812
:10348000A34208D9206821188B4201BF19685B68E4
:1034900009182160EDE71A465B680BB1A342FAD91F
:1034A00011685018A0420BD1206801445018834283
:1034B0001160E0D118685B68536008441060DAE777
:1034C00002D90C232B60D6E7206821188B4204BF59
:1034D00019685B68636004BF091821605460CAE71B
:1034E00038BD00BF181A0020024B0146186800F0D2
:1034F00025B800BF1C00002070B50F4E0C46316887
:10350000054611B900F0D4FC30602146284600F091
:10351000CFFC431C03D14FF0FF34204670BDC41CC8
:1035200024F00304A042F8D0211A284600F0C0FC81
:103530000130F2D1EFE700BF141A00202DE9F84363
:10354000CD1C25F0030508350C2D38BF0C25002DAA
:10355000064601DBA94204D90C2333600020BDE8F4
:10356000F883DFF8D48000F069F8D8F800301C4602
:1035700044BB29463046FFF7BFFF431C044658D1E1
:10358000D8F800402746002F43D1002C4BD02368A9
:103590003946304604EB030900F08AFC814542D1EC
:1035A00021686D1A29463046FFF7A6FF01303AD050
:1035B00023682B442360D8F800305A6862BBC8F8EF
:1035C00000700FE02268521B20D40B2A17D9611912
:1035D000A342256018BF5960636808BFC8F800108F
:1035E00062514B60304600F02FF804F10B00231DB0
:1035F00020F00700C21A1CBF1B1AA350AFE7626875
:10360000A3420CBFC8F800205A60EBE72346646869
:10361000AEE73C467F68B6E71A465B68A342FBD13B
:1036200000235360DEE70C233360304600F00CF8D3
:1036300094E70560D6E700BF181A00200148FFF79D
:10364000F8BE00BF101A00200148FFF7F3BE00BF0C
:10365000101A00209368013B002B10B4936008DA25
:103660009469A34201DB0A2903D15DF8044BFFF7FB
:10367000D5BD1368581C1060197008465DF8044BDE
:103680007047F8B506460F461446D518AC4201D12E
:10369000002007E014F8011B3A463046FFF7DAFF36
:1036A000431CF3D1F8BD00002DE9F04F0D469DB04D
:1036B00014469846064618B1036A0BB9FFF708FC92
:1036C0006B6ED90705D4AB899A0502D4A86DFFF7B4
:1036D000B0FEAB891B0701D52B699BB92946304643
:1036E000FFF7DAFD70B16B6EDC0704D54FF0FF30E9
:1036F0001DB0BDE8F08FAB899805F7D4A86DFFF732
:1037000099FEF3E70023099320238DF82930CDF8A3
:103710000C803023DFF8AC818DF82A304FF001099E
:1037200023469A4613F8012B0AB1252AF9D1BAEBA0
:10373000040B0BD05B46224629463046FFF7A1FF1B
:10374000013000F0A780099A5A4409929AF8003093
:10375000002B00F09F8000234FF0FF32CDE90523BE
:103760000AF1010A049307938DF853301A935446D3
:10377000052214F8011B5348FDF70AF9049AD8B939
:10378000D10644BF20238DF85330130744BF2B23A9
:103790008DF853309AF800302A2B15D0079A5446EA
:1037A00000204FF00A0C214611F8013B303B092B59
:1037B0004BD9B0B1079214E0A0EB080309FA03F368
:1037C00013430493A246D2E7039B191D1B68039180
:1037D000002BBBBF5B4242F0020207930793B8BFC6
:1037E000049223782E2B0AD163782A2B32D1039BA3
:1037F0001A1D1B68039243EAE37302340593DFF852
:10380000D4A0217803225046FDF7C2F838B1049BBA
:10381000A0EB0A004022824013430134049314F8C1
:10382000011B29488DF828100622FDF7B1F8002861
:103830003FD0264B1BBB039B073323F00703083302
:103840000393099B3B4409936AE70CFB02320C4645
:103850000120A8E700230134059319464FF00A0C14
:10386000204610F8012B303A092A03D9002BC6D084
:103870000591C4E70CFB012104460123F0E703ABEB
:1038800000932A46124B04A93046AFF30080074646
:10389000781CD6D16B6ED90705D4AB899A0502D4B2
:1038A000A86DFFF7C7FDAB895B063FF51FAF099811
:1038B0001EE703AB00932A46054B04A9304600F0EF
:1038C00079F8E4E7744100087E4100080000000038
:1038D000833600087A4100082DE9F04716469846DD
:1038E0008A680B69DDF820909342B8BF13463360B5
:1038F00091F8432007460C460AB101333360236830
:10390000990642BF336802333360256815F0060517
:1039100006D104F1190AE36832689B1AAB4226DC2F
:1039200094F843302268003B18BF012392062BD441
:1039300004F1430241463846C84701301ED023688F
:10394000226903F00603042B02BFE5683368ED1A11
:10395000A3680CBF25EAE57500259342C4BF9B1AF6
:10396000ED1800261A34B5421AD1002008E00123D0
:10397000524641463846C847013003D14FF0FF3028
:10398000BDE8F0870135C6E7E1185A1C302081F800
:103990004300224494F8451082F843100233C7E7ED
:1039A0000123224641463846C8470130E6D0013659
:1039B000D9E700002DE9FF470F7E0C9E782F914636
:1039C00080460C469A4601F1430207D8622F0AD876
:1039D000002F00F0D280582F00F0B78004F142068B
:1039E00084F842703AE0A7F16303152BF6D801A1E1
:1039F00051F823F04D3A0008613A0008DD3900081B
:103A0000DD390008DD390008DD390008613A0008B9
:103A1000DD390008DD390008DD390008DD3900082E
:103A2000613B00088B3A0008173B0008DD390008AD
:103A3000DD390008833B0008DD3900088B3A0008B7
:103A4000DD390008DD3900081F3B000833681A1D06
:103A50001B68326004F1420684F8423001239DE085
:103A600033682068191D3160060601D51D6803E022
:103A70004506FBD5B3F90050002D03DA2D236D4226
:103A800084F8433059480A2310E021683368080657
:103A900053F8045B02D4490648BFADB26F2F5348B8
:103AA000336059D10823002184F843106668A6606A
:103AB000002E05DB21682E4321F0040121604DD04A
:103AC0001646B5FBF3F103FB1157C75D06F8017D00
:103AD0002F46BB420D46F4D9082B0BD12368DF07D4
:103AE00008D5236961689942DEBF302306F8013C9E
:103AF00006F1FF36921B2261CDF800A04B4603AAC7
:103B000021464046FFF7E8FE01304CD14FF0FF3030
:103B100004B0BDE8F087236843F0200323603448F5
:103B2000782784F84570236831681F0651F8045BD4
:103B300002D45F0648BFADB23160D90744BF43F03D
:103B4000200323601DB11023ADE72848E9E723686F
:103B500023F020032360F6E70A23A4E71646BBE719
:103B6000336825686169181D30602E061B6801D511
:103B7000196002E06806FBD5198000232361164610
:103B8000BAE733681A1D32601E6862680021304649
:103B9000FCF7FEFE08B1801B6060636823610023B0
:103BA00084F84330A8E72369324649464046D04767
:103BB0000130ABD023689B0713D4E068039B984285
:103BC000B8BF1846A4E70123324649464046D047CD
:103BD00001309BD00135E36803995B1AAB42F2DCFC
:103BE000EBE7002504F11906F5E700BF8541000861
:103BF00096410008B1F90C202DE9F0411607054661
:103C00000C4651D44B68002B02DC0B6C002B49DDB9
:103C1000E66A002E46D0002312F480522F682B60F3
:103C200031D0626DA389590705D56368D21A636BD9
:103C30000BB1236CD21A0023E66A216A2846B047EA
:103C4000421CB4F90C3006D129681D2946D8294AEE
:103C5000CA40D60742D500226260D9042269226098
:103C600004D5421C01D12B6803B96065616B2F60DC
:103C7000C1B104F14403994202D02846FFF7EAFBA0
:103C8000002363630EE0216A01232846B047024601
:103C9000501CC7D12B68002BC4D01D2B01D0162B74
:103CA0001AD12F6000201EE00F69002FFAD0930771
:103CB0000E6808BF4B690F6018BF0023A6EB07080A
:103CC0008B60B8F1000FEDDD216AA66A43463A46E3
:103CD0002846B047002808DCB4F90C3043F0400314
:103CE000A3814FF0FF30BDE8F0810744A8EB000846
:103CF000E7E700BF0100402038B50B6905460C46D8
:103D000013B90025284638BD18B1036A0BB9FFF76F
:103D1000DFF8B4F90C30002BF3D0626ED00704D476
:103D2000990502D4A06DFFF784FB28462146FFF7D2
:103D300061FF636EDA070546E4D4A3899B05E1D4ED
:103D4000A06DFFF777FBDDE770B50C46B1F90E10FB
:103D5000002996B015461E460ADAA18911F08001A5
:103D600013D14FF48062002031602A6016B070BD1C
:103D70006A4600F07BF80028EFDB019901F47041FE
:103D8000A1F5005359425941EBE700214022EAE7EF
:103D90008B8973B59E0705460C4607D504F147038A
:103DA000236023610123636102B070BD01AB6A46E9
:103DB000FFF7CAFF009E28463146FFF7BFFBB4F964
:103DC0000C3038B99A05EFD423F0030343F0020313
:103DD000A381E3E743F08003A381019B2060C4E952
:103DE0000406002BE0D0B4F90E10284600F050F87D
:103DF0000028D9D0A38923F0030343F00103A38152
:103E0000D2E770B50D461446064618B1036A0BB9E1
:103E1000FFF75EF8636ED80705D4A389990502D42D
:103E2000A06DFFF706FBA368013B002BA36005DA3A
:103E3000A269934212DBEBB20A2B0FD023685A1C03
:103E400022601D70EDB2636EDA0705D4A3899B056D
:103E500002D4A06DFFF7EEFA284670BD294622462F
:103E60003046FFF7DBF90546EDE7000038B5074DB2
:103E700000230446084611462B60FDF708FA431C50
:103E800002D12B6803B1236038BD00BF0C1A00209B
:103E900038B5064D0023044608462B60FDF7FCF9B3
:103EA000431C02D12B6803B1236038BD0C1A0020DB
:103EB00038B5064D0023044608462B60FDF7F0F99F
:103EC000431C02D12B6803B1236038BD0C1A0020BB
:103ED000F8B500BFF8BC08BC9E467047F8B500BFF7
:083EE000F8BC08BC9E467047C7
:103EE8000D0A0A3C2D5B3D3D3D3D3D3D3D3D3D20A0
:103EF8004E524632344C303120546573742053741A
:103F0800617274696E67203D3D3D3D3D3D3D3D3DDF
:103F18005D2D3E0D000000005465737420313A2079
:103F280053504920436F6D6D756E69636174696F95
:103F38006E2E2E2E20000000504153534544202859
:103F48007374617475733D307825303258290D0AC1
:103F5800000000005465737420323A204E524632F5
:103F680034204861726477617265204465746563C2
:103F7800742E2E2E200000004641494C454420282E
:103F88007374617475733D307825303258290D0A81
:103F98000000000050415353454420285365747570
:103FA800705F41573D30783033290D005465737484
:103FB80020333A20496E697469616C697A696E6761
:103FC8002052656365697665722E2E2E20000000EA
:103FD800444F4E450D0000000D0A3C2D5B3D3D3D14
:103FE8003D3D3D3D3D3D3D3D204E52463234204312
:103FF8006F6E66696775726174696F6E203D3D3DCD
:104008003D3D3D3D3D3D3D5D2D3E0D00434F4E4602
:1040180049473A20202020203078253032580D0A90
:104028000000000052465F43483A2020202020200C
:1040380030782530325820284368616E6E656C20D0
:104048002564290D0A00000052465F534554555017
:104058003A2020203078253032580D0A0000000020
:10406800454E5F41413A20202020202030782530DD
:1040780032580D0A00000000464541545552453A51
:10408800202020203078253032580D0A000000000A
:104098005354415455533A2020202020307825305D
:1040A80032580D0A000000000D0A3C2D5B3D3D3DD5
:1040B8003D3D3D3D3D3D2057616974696E67206611
:1040C8006F72205243207061636B657473203D3DAD
:1040D8003D3D3D3D3D3D3D5D2D3E0D005475726EAF
:1040E800206F6E20796F7572207472616E736D69BE
:1040F80074746572206E6F77210D00004641494C3B
:104108004544202D20436865636B20776972696E8A
:1041180067210D000D446174612069732052656147
:10412800647900004E5246323454657374000000BE
:10413800546865204561676C652048617320436F4A
:104148006E6E656374656420537563636573736627
:10415800756C6C792100000049444C450000000052
:10416800546D72205376630004000000232D302B19
:104178002000686C4C006566674546470030313260
:1041880033343536373839414243444546003031B7
:104198003233343536373839616263646566000016
:0841A800E8C7FF7F01000000E1
:0441B000550A0008A4
:0441B400310A0008C4
:1041B800E7E7FF11E200000000E1F505AAAAAAAAB4
:1041C8000000000003000000D0180020200000209C
:1041D80000000000D018002038190020A019002085
:1041E80000000000000000000000000000000000C7
:1041F80000000000000000000000000000000000B7
:1042080000000000000000000000000000000000A6
:0C4218000000000000000000000000009A
:0400000508002D6161
:00000001FF
